{
  "_format": "hh-sol-artifact-1",
  "contractName": "ExNFT",
  "sourceName": "contracts/ExNFT.sol",
  "abi": [
    {
      "inputs": [],
      "stateMutability": "nonpayable",
      "type": "constructor"
    },
    {
      "inputs": [
        {
          "internalType": "address",
          "name": "sender",
          "type": "address"
        },
        {
          "internalType": "uint256",
          "name": "tokenId",
          "type": "uint256"
        },
        {
          "internalType": "address",
          "name": "owner",
          "type": "address"
        }
      ],
      "name": "ERC721IncorrectOwner",
      "type": "error"
    },
    {
      "inputs": [
        {
          "internalType": "address",
          "name": "operator",
          "type": "address"
        },
        {
          "internalType": "uint256",
          "name": "tokenId",
          "type": "uint256"
        }
      ],
      "name": "ERC721InsufficientApproval",
      "type": "error"
    },
    {
      "inputs": [
        {
          "internalType": "address",
          "name": "approver",
          "type": "address"
        }
      ],
      "name": "ERC721InvalidApprover",
      "type": "error"
    },
    {
      "inputs": [
        {
          "internalType": "address",
          "name": "operator",
          "type": "address"
        }
      ],
      "name": "ERC721InvalidOperator",
      "type": "error"
    },
    {
      "inputs": [
        {
          "internalType": "address",
          "name": "owner",
          "type": "address"
        }
      ],
      "name": "ERC721InvalidOwner",
      "type": "error"
    },
    {
      "inputs": [
        {
          "internalType": "address",
          "name": "receiver",
          "type": "address"
        }
      ],
      "name": "ERC721InvalidReceiver",
      "type": "error"
    },
    {
      "inputs": [
        {
          "internalType": "address",
          "name": "sender",
          "type": "address"
        }
      ],
      "name": "ERC721InvalidSender",
      "type": "error"
    },
    {
      "inputs": [
        {
          "internalType": "uint256",
          "name": "tokenId",
          "type": "uint256"
        }
      ],
      "name": "ERC721NonexistentToken",
      "type": "error"
    },
    {
      "inputs": [
        {
          "internalType": "address",
          "name": "owner",
          "type": "address"
        }
      ],
      "name": "OwnableInvalidOwner",
      "type": "error"
    },
    {
      "inputs": [
        {
          "internalType": "address",
          "name": "account",
          "type": "address"
        }
      ],
      "name": "OwnableUnauthorizedAccount",
      "type": "error"
    },
    {
      "anonymous": false,
      "inputs": [
        {
          "indexed": true,
          "internalType": "address",
          "name": "owner",
          "type": "address"
        },
        {
          "indexed": true,
          "internalType": "address",
          "name": "approved",
          "type": "address"
        },
        {
          "indexed": true,
          "internalType": "uint256",
          "name": "tokenId",
          "type": "uint256"
        }
      ],
      "name": "Approval",
      "type": "event"
    },
    {
      "anonymous": false,
      "inputs": [
        {
          "indexed": true,
          "internalType": "address",
          "name": "owner",
          "type": "address"
        },
        {
          "indexed": true,
          "internalType": "address",
          "name": "operator",
          "type": "address"
        },
        {
          "indexed": false,
          "internalType": "bool",
          "name": "approved",
          "type": "bool"
        }
      ],
      "name": "ApprovalForAll",
      "type": "event"
    },
    {
      "anonymous": false,
      "inputs": [
        {
          "indexed": false,
          "internalType": "uint256",
          "name": "_fromTokenId",
          "type": "uint256"
        },
        {
          "indexed": false,
          "internalType": "uint256",
          "name": "_toTokenId",
          "type": "uint256"
        }
      ],
      "name": "BatchMetadataUpdate",
      "type": "event"
    },
    {
      "anonymous": false,
      "inputs": [
        {
          "indexed": false,
          "internalType": "uint256",
          "name": "_tokenId",
          "type": "uint256"
        }
      ],
      "name": "MetadataUpdate",
      "type": "event"
    },
    {
      "anonymous": false,
      "inputs": [
        {
          "indexed": true,
          "internalType": "address",
          "name": "previousOwner",
          "type": "address"
        },
        {
          "indexed": true,
          "internalType": "address",
          "name": "newOwner",
          "type": "address"
        }
      ],
      "name": "OwnershipTransferred",
      "type": "event"
    },
    {
      "anonymous": false,
      "inputs": [
        {
          "indexed": true,
          "internalType": "address",
          "name": "from",
          "type": "address"
        },
        {
          "indexed": true,
          "internalType": "address",
          "name": "to",
          "type": "address"
        },
        {
          "indexed": true,
          "internalType": "uint256",
          "name": "tokenId",
          "type": "uint256"
        }
      ],
      "name": "Transfer",
      "type": "event"
    },
    {
      "inputs": [
        {
          "internalType": "address",
          "name": "to",
          "type": "address"
        },
        {
          "internalType": "uint256",
          "name": "tokenId",
          "type": "uint256"
        }
      ],
      "name": "approve",
      "outputs": [],
      "stateMutability": "nonpayable",
      "type": "function"
    },
    {
      "inputs": [
        {
          "internalType": "address",
          "name": "owner",
          "type": "address"
        }
      ],
      "name": "balanceOf",
      "outputs": [
        {
          "internalType": "uint256",
          "name": "",
          "type": "uint256"
        }
      ],
      "stateMutability": "view",
      "type": "function"
    },
    {
      "inputs": [
        {
          "internalType": "uint256",
          "name": "tokenId",
          "type": "uint256"
        }
      ],
      "name": "getApproved",
      "outputs": [
        {
          "internalType": "address",
          "name": "",
          "type": "address"
        }
      ],
      "stateMutability": "view",
      "type": "function"
    },
    {
      "inputs": [
        {
          "internalType": "address",
          "name": "owner",
          "type": "address"
        },
        {
          "internalType": "address",
          "name": "operator",
          "type": "address"
        }
      ],
      "name": "isApprovedForAll",
      "outputs": [
        {
          "internalType": "bool",
          "name": "",
          "type": "bool"
        }
      ],
      "stateMutability": "view",
      "type": "function"
    },
    {
      "inputs": [
        {
          "internalType": "address",
          "name": "to",
          "type": "address"
        },
        {
          "internalType": "string",
          "name": "tokenURI",
          "type": "string"
        }
      ],
      "name": "mint",
      "outputs": [
        {
          "internalType": "uint256",
          "name": "",
          "type": "uint256"
        }
      ],
      "stateMutability": "payable",
      "type": "function"
    },
    {
      "inputs": [],
      "name": "mintFee",
      "outputs": [
        {
          "internalType": "uint256",
          "name": "",
          "type": "uint256"
        }
      ],
      "stateMutability": "view",
      "type": "function"
    },
    {
      "inputs": [],
      "name": "name",
      "outputs": [
        {
          "internalType": "string",
          "name": "",
          "type": "string"
        }
      ],
      "stateMutability": "view",
      "type": "function"
    },
    {
      "inputs": [],
      "name": "owner",
      "outputs": [
        {
          "internalType": "address",
          "name": "",
          "type": "address"
        }
      ],
      "stateMutability": "view",
      "type": "function"
    },
    {
      "inputs": [
        {
          "internalType": "uint256",
          "name": "tokenId",
          "type": "uint256"
        }
      ],
      "name": "ownerOf",
      "outputs": [
        {
          "internalType": "address",
          "name": "",
          "type": "address"
        }
      ],
      "stateMutability": "view",
      "type": "function"
    },
    {
      "inputs": [],
      "name": "renounceOwnership",
      "outputs": [],
      "stateMutability": "nonpayable",
      "type": "function"
    },
    {
      "inputs": [
        {
          "internalType": "address",
          "name": "from",
          "type": "address"
        },
        {
          "internalType": "address",
          "name": "to",
          "type": "address"
        },
        {
          "internalType": "uint256",
          "name": "tokenId",
          "type": "uint256"
        }
      ],
      "name": "safeTransferFrom",
      "outputs": [],
      "stateMutability": "nonpayable",
      "type": "function"
    },
    {
      "inputs": [
        {
          "internalType": "address",
          "name": "from",
          "type": "address"
        },
        {
          "internalType": "address",
          "name": "to",
          "type": "address"
        },
        {
          "internalType": "uint256",
          "name": "tokenId",
          "type": "uint256"
        },
        {
          "internalType": "bytes",
          "name": "data",
          "type": "bytes"
        }
      ],
      "name": "safeTransferFrom",
      "outputs": [],
      "stateMutability": "nonpayable",
      "type": "function"
    },
    {
      "inputs": [
        {
          "internalType": "address",
          "name": "operator",
          "type": "address"
        },
        {
          "internalType": "bool",
          "name": "approved",
          "type": "bool"
        }
      ],
      "name": "setApprovalForAll",
      "outputs": [],
      "stateMutability": "nonpayable",
      "type": "function"
    },
    {
      "inputs": [
        {
          "internalType": "uint256",
          "name": "_fee",
          "type": "uint256"
        }
      ],
      "name": "setMintFee",
      "outputs": [],
      "stateMutability": "nonpayable",
      "type": "function"
    },
    {
      "inputs": [
        {
          "internalType": "bytes4",
          "name": "interfaceId",
          "type": "bytes4"
        }
      ],
      "name": "supportsInterface",
      "outputs": [
        {
          "internalType": "bool",
          "name": "",
          "type": "bool"
        }
      ],
      "stateMutability": "view",
      "type": "function"
    },
    {
      "inputs": [],
      "name": "symbol",
      "outputs": [
        {
          "internalType": "string",
          "name": "",
          "type": "string"
        }
      ],
      "stateMutability": "view",
      "type": "function"
    },
    {
      "inputs": [
        {
          "internalType": "uint256",
          "name": "tokenId",
          "type": "uint256"
        }
      ],
      "name": "tokenURI",
      "outputs": [
        {
          "internalType": "string",
          "name": "",
          "type": "string"
        }
      ],
      "stateMutability": "view",
      "type": "function"
    },
    {
      "inputs": [
        {
          "internalType": "address",
          "name": "from",
          "type": "address"
        },
        {
          "internalType": "address",
          "name": "to",
          "type": "address"
        },
        {
          "internalType": "uint256",
          "name": "tokenId",
          "type": "uint256"
        }
      ],
      "name": "transferFrom",
      "outputs": [],
      "stateMutability": "nonpayable",
      "type": "function"
    },
    {
      "inputs": [
        {
          "internalType": "address",
          "name": "newOwner",
          "type": "address"
        }
      ],
      "name": "transferOwnership",
      "outputs": [],
      "stateMutability": "nonpayable",
      "type": "function"
    }
  ],
  "bytecode": "0x60806040523480156200001157600080fd5b50336040518060400160405280600581526020017f45784e46540000000000000000000000000000000000000000000000000000008152506040518060400160405280600381526020017f45584e0000000000000000000000000000000000000000000000000000000000815250816000908162000090919062000472565b508060019081620000a2919062000472565b505050600073ffffffffffffffffffffffffffffffffffffffff168173ffffffffffffffffffffffffffffffffffffffff16036200011a5760006040517f1e4fbdf70000000000000000000000000000000000000000000000000000000081526004016200011191906200059e565b60405180910390fd5b6200012b816200013260201b60201c565b50620005bb565b6000600760009054906101000a900473ffffffffffffffffffffffffffffffffffffffff16905081600760006101000a81548173ffffffffffffffffffffffffffffffffffffffff021916908373ffffffffffffffffffffffffffffffffffffffff1602179055508173ffffffffffffffffffffffffffffffffffffffff168173ffffffffffffffffffffffffffffffffffffffff167f8be0079c531659141344cd1fd0a4f28419497f9722a3daafe3b4186f6b6457e060405160405180910390a35050565b600081519050919050565b7f4e487b7100000000000000000000000000000000000000000000000000000000600052604160045260246000fd5b7f4e487b7100000000000000000000000000000000000000000000000000000000600052602260045260246000fd5b600060028204905060018216806200027a57607f821691505b60208210810362000290576200028f62000232565b5b50919050565b60008190508160005260206000209050919050565b60006020601f8301049050919050565b600082821b905092915050565b600060088302620002fa7fffffffffffffffffffffffffffffffffffffffffffffffffffffffffffffffff82620002bb565b620003068683620002bb565b95508019841693508086168417925050509392505050565b6000819050919050565b6000819050919050565b6000620003536200034d62000347846200031e565b62000328565b6200031e565b9050919050565b6000819050919050565b6200036f8362000332565b620003876200037e826200035a565b848454620002c8565b825550505050565b600090565b6200039e6200038f565b620003ab81848462000364565b505050565b5b81811015620003d357620003c760008262000394565b600181019050620003b1565b5050565b601f8211156200042257620003ec8162000296565b620003f784620002ab565b8101602085101562000407578190505b6200041f6200041685620002ab565b830182620003b0565b50505b505050565b600082821c905092915050565b6000620004476000198460080262000427565b1980831691505092915050565b600062000462838362000434565b9150826002028217905092915050565b6200047d82620001f8565b67ffffffffffffffff81111562000499576200049862000203565b5b620004a5825462000261565b620004b2828285620003d7565b600060209050601f831160018114620004ea5760008415620004d5578287015190505b620004e1858262000454565b86555062000551565b601f198416620004fa8662000296565b60005b828110156200052457848901518255600182019150602085019450602081019050620004fd565b8683101562000544578489015162000540601f89168262000434565b8355505b6001600288020188555050505b505050505050565b600073ffffffffffffffffffffffffffffffffffffffff82169050919050565b6000620005868262000559565b9050919050565b620005988162000579565b82525050565b6000602082019050620005b560008301846200058d565b92915050565b61289d80620005cb6000396000f3fe6080604052600436106101145760003560e01c8063715018a6116100a0578063c87b56dd11610064578063c87b56dd1461039d578063d0def521146103da578063e985e9c51461040a578063eddd0d9c14610447578063f2fde38b1461047057610114565b8063715018a6146102de5780638da5cb5b146102f557806395d89b4114610320578063a22cb4651461034b578063b88d4fde1461037457610114565b806313966db5116100e757806313966db5146101e757806323b872dd1461021257806342842e0e1461023b5780636352211e1461026457806370a08231146102a157610114565b806301ffc9a71461011957806306fdde0314610156578063081812fc14610181578063095ea7b3146101be575b600080fd5b34801561012557600080fd5b50610140600480360381019061013b9190611c89565b610499565b60405161014d9190611cd1565b60405180910390f35b34801561016257600080fd5b5061016b6104ab565b6040516101789190611d7c565b60405180910390f35b34801561018d57600080fd5b506101a860048036038101906101a39190611dd4565b61053d565b6040516101b59190611e42565b60405180910390f35b3480156101ca57600080fd5b506101e560048036038101906101e09190611e89565b610559565b005b3480156101f357600080fd5b506101fc61056f565b6040516102099190611ed8565b60405180910390f35b34801561021e57600080fd5b5061023960048036038101906102349190611ef3565b610575565b005b34801561024757600080fd5b50610262600480360381019061025d9190611ef3565b610677565b005b34801561027057600080fd5b5061028b60048036038101906102869190611dd4565b610697565b6040516102989190611e42565b60405180910390f35b3480156102ad57600080fd5b506102c860048036038101906102c39190611f46565b6106a9565b6040516102d59190611ed8565b60405180910390f35b3480156102ea57600080fd5b506102f3610763565b005b34801561030157600080fd5b5061030a610777565b6040516103179190611e42565b60405180910390f35b34801561032c57600080fd5b506103356107a1565b6040516103429190611d7c565b60405180910390f35b34801561035757600080fd5b50610372600480360381019061036d9190611f9f565b610833565b005b34801561038057600080fd5b5061039b60048036038101906103969190612114565b610849565b005b3480156103a957600080fd5b506103c460048036038101906103bf9190611dd4565b61086e565b6040516103d19190611d7c565b60405180910390f35b6103f460048036038101906103ef9190612238565b610880565b6040516104019190611ed8565b60405180910390f35b34801561041657600080fd5b50610431600480360381019061042c9190612294565b61094e565b60405161043e9190611cd1565b60405180910390f35b34801561045357600080fd5b5061046e60048036038101906104699190611dd4565b6109e2565b005b34801561047c57600080fd5b5061049760048036038101906104929190611f46565b6109f4565b005b60006104a482610a7a565b9050919050565b6060600080546104ba90612303565b80601f01602080910402602001604051908101604052809291908181526020018280546104e690612303565b80156105335780601f1061050857610100808354040283529160200191610533565b820191906000526020600020905b81548152906001019060200180831161051657829003601f168201915b5050505050905090565b600061054882610adb565b5061055282610b63565b9050919050565b61056b8282610566610ba0565b610ba8565b5050565b60095481565b600073ffffffffffffffffffffffffffffffffffffffff168273ffffffffffffffffffffffffffffffffffffffff16036105e75760006040517f64a0ae920000000000000000000000000000000000000000000000000000000081526004016105de9190611e42565b60405180910390fd5b60006105fb83836105f6610ba0565b610bba565b90508373ffffffffffffffffffffffffffffffffffffffff168173ffffffffffffffffffffffffffffffffffffffff1614610671578382826040517f64283d7b00000000000000000000000000000000000000000000000000000000815260040161066893929190612334565b60405180910390fd5b50505050565b61069283838360405180602001604052806000815250610849565b505050565b60006106a282610adb565b9050919050565b60008073ffffffffffffffffffffffffffffffffffffffff168273ffffffffffffffffffffffffffffffffffffffff160361071c5760006040517f89c62b640000000000000000000000000000000000000000000000000000000081526004016107139190611e42565b60405180910390fd5b600360008373ffffffffffffffffffffffffffffffffffffffff1673ffffffffffffffffffffffffffffffffffffffff168152602001908152602001600020549050919050565b61076b610dd4565b6107756000610e5b565b565b6000600760009054906101000a900473ffffffffffffffffffffffffffffffffffffffff16905090565b6060600180546107b090612303565b80601f01602080910402602001604051908101604052809291908181526020018280546107dc90612303565b80156108295780601f106107fe57610100808354040283529160200191610829565b820191906000526020600020905b81548152906001019060200180831161080c57829003601f168201915b5050505050905090565b61084561083e610ba0565b8383610f21565b5050565b610854848484610575565b61086861085f610ba0565b85858585611090565b50505050565b606061087982611241565b9050919050565b60006009543410156108c7576040517f08c379a00000000000000000000000000000000000000000000000000000000081526004016108be906123b7565b60405180910390fd5b6000600860008154809291906108dc90612406565b9190505590506108ec8482611354565b6108f6818461144d565b6108fe610777565b73ffffffffffffffffffffffffffffffffffffffff166108fc349081150290604051600060405180830381858888f19350505050158015610943573d6000803e3d6000fd5b508091505092915050565b6000600560008473ffffffffffffffffffffffffffffffffffffffff1673ffffffffffffffffffffffffffffffffffffffff16815260200190815260200160002060008373ffffffffffffffffffffffffffffffffffffffff1673ffffffffffffffffffffffffffffffffffffffff16815260200190815260200160002060009054906101000a900460ff16905092915050565b6109ea610dd4565b8060098190555050565b6109fc610dd4565b600073ffffffffffffffffffffffffffffffffffffffff168173ffffffffffffffffffffffffffffffffffffffff1603610a6e5760006040517f1e4fbdf7000000000000000000000000000000000000000000000000000000008152600401610a659190611e42565b60405180910390fd5b610a7781610e5b565b50565b6000634906490660e01b7bffffffffffffffffffffffffffffffffffffffffffffffffffffffff1916827bffffffffffffffffffffffffffffffffffffffffffffffffffffffff19161480610ad45750610ad3826114a9565b5b9050919050565b600080610ae78361158b565b9050600073ffffffffffffffffffffffffffffffffffffffff168173ffffffffffffffffffffffffffffffffffffffff1603610b5a57826040517f7e273289000000000000000000000000000000000000000000000000000000008152600401610b519190611ed8565b60405180910390fd5b80915050919050565b60006004600083815260200190815260200160002060009054906101000a900473ffffffffffffffffffffffffffffffffffffffff169050919050565b600033905090565b610bb583838360016115c8565b505050565b600080610bc68461158b565b9050600073ffffffffffffffffffffffffffffffffffffffff168373ffffffffffffffffffffffffffffffffffffffff1614610c0857610c0781848661178d565b5b600073ffffffffffffffffffffffffffffffffffffffff168173ffffffffffffffffffffffffffffffffffffffff1614610c9957610c4a6000856000806115c8565b6001600360008373ffffffffffffffffffffffffffffffffffffffff1673ffffffffffffffffffffffffffffffffffffffff168152602001908152602001600020600082825403925050819055505b600073ffffffffffffffffffffffffffffffffffffffff168573ffffffffffffffffffffffffffffffffffffffff1614610d1c576001600360008773ffffffffffffffffffffffffffffffffffffffff1673ffffffffffffffffffffffffffffffffffffffff168152602001908152602001600020600082825401925050819055505b846002600086815260200190815260200160002060006101000a81548173ffffffffffffffffffffffffffffffffffffffff021916908373ffffffffffffffffffffffffffffffffffffffff160217905550838573ffffffffffffffffffffffffffffffffffffffff168273ffffffffffffffffffffffffffffffffffffffff167fddf252ad1be2c89b69c2b068fc378daa952ba7f163c4a11628f55a4df523b3ef60405160405180910390a4809150509392505050565b610ddc610ba0565b73ffffffffffffffffffffffffffffffffffffffff16610dfa610777565b73ffffffffffffffffffffffffffffffffffffffff1614610e5957610e1d610ba0565b6040517f118cdaa7000000000000000000000000000000000000000000000000000000008152600401610e509190611e42565b60405180910390fd5b565b6000600760009054906101000a900473ffffffffffffffffffffffffffffffffffffffff16905081600760006101000a81548173ffffffffffffffffffffffffffffffffffffffff021916908373ffffffffffffffffffffffffffffffffffffffff1602179055508173ffffffffffffffffffffffffffffffffffffffff168173ffffffffffffffffffffffffffffffffffffffff167f8be0079c531659141344cd1fd0a4f28419497f9722a3daafe3b4186f6b6457e060405160405180910390a35050565b600073ffffffffffffffffffffffffffffffffffffffff168273ffffffffffffffffffffffffffffffffffffffff1603610f9257816040517f5b08ba18000000000000000000000000000000000000000000000000000000008152600401610f899190611e42565b60405180910390fd5b80600560008573ffffffffffffffffffffffffffffffffffffffff1673ffffffffffffffffffffffffffffffffffffffff16815260200190815260200160002060008473ffffffffffffffffffffffffffffffffffffffff1673ffffffffffffffffffffffffffffffffffffffff16815260200190815260200160002060006101000a81548160ff0219169083151502179055508173ffffffffffffffffffffffffffffffffffffffff168373ffffffffffffffffffffffffffffffffffffffff167f17307eab39ab6107e8899845ad3d59bd9653f200f220920489ca2b5937696c31836040516110839190611cd1565b60405180910390a3505050565b60008373ffffffffffffffffffffffffffffffffffffffff163b111561123a578273ffffffffffffffffffffffffffffffffffffffff1663150b7a02868685856040518563ffffffff1660e01b81526004016110ef94939291906124a3565b6020604051808303816000875af192505050801561112b57506040513d601f19601f820116820180604052508101906111289190612504565b60015b6111af573d806000811461115b576040519150601f19603f3d011682016040523d82523d6000602084013e611160565b606091505b5060008151036111a757836040517f64a0ae9200000000000000000000000000000000000000000000000000000000815260040161119e9190611e42565b60405180910390fd5b805160208201fd5b63150b7a0260e01b7bffffffffffffffffffffffffffffffffffffffffffffffffffffffff1916817bffffffffffffffffffffffffffffffffffffffffffffffffffffffff19161461123857836040517f64a0ae9200000000000000000000000000000000000000000000000000000000815260040161122f9190611e42565b60405180910390fd5b505b5050505050565b606061124c82610adb565b50600060066000848152602001908152602001600020805461126d90612303565b80601f016020809104026020016040519081016040528092919081815260200182805461129990612303565b80156112e65780601f106112bb576101008083540402835291602001916112e6565b820191906000526020600020905b8154815290600101906020018083116112c957829003601f168201915b5050505050905060006112f7611851565b9050600081510361130c57819250505061134f565b60008251111561134157808260405160200161132992919061256d565b6040516020818303038152906040529250505061134f565b61134a84611868565b925050505b919050565b600073ffffffffffffffffffffffffffffffffffffffff168273ffffffffffffffffffffffffffffffffffffffff16036113c65760006040517f64a0ae920000000000000000000000000000000000000000000000000000000081526004016113bd9190611e42565b60405180910390fd5b60006113d483836000610bba565b9050600073ffffffffffffffffffffffffffffffffffffffff168173ffffffffffffffffffffffffffffffffffffffff16146114485760006040517f73c6ac6e00000000000000000000000000000000000000000000000000000000815260040161143f9190611e42565b60405180910390fd5b505050565b8060066000848152602001908152602001600020908161146d919061273d565b507ff8e1a15aba9398e019f0b49df1a4fde98ee17ae345cb5f6b5e2c27f5033e8ce78260405161149d9190611ed8565b60405180910390a15050565b60007f80ac58cd000000000000000000000000000000000000000000000000000000007bffffffffffffffffffffffffffffffffffffffffffffffffffffffff1916827bffffffffffffffffffffffffffffffffffffffffffffffffffffffff1916148061157457507f5b5e139f000000000000000000000000000000000000000000000000000000007bffffffffffffffffffffffffffffffffffffffffffffffffffffffff1916827bffffffffffffffffffffffffffffffffffffffffffffffffffffffff1916145b806115845750611583826118d1565b5b9050919050565b60006002600083815260200190815260200160002060009054906101000a900473ffffffffffffffffffffffffffffffffffffffff169050919050565b80806116015750600073ffffffffffffffffffffffffffffffffffffffff168273ffffffffffffffffffffffffffffffffffffffff1614155b1561173557600061161184610adb565b9050600073ffffffffffffffffffffffffffffffffffffffff168373ffffffffffffffffffffffffffffffffffffffff161415801561167c57508273ffffffffffffffffffffffffffffffffffffffff168173ffffffffffffffffffffffffffffffffffffffff1614155b801561168f575061168d818461094e565b155b156116d157826040517fa9fbf51f0000000000000000000000000000000000000000000000000000000081526004016116c89190611e42565b60405180910390fd5b811561173357838573ffffffffffffffffffffffffffffffffffffffff168273ffffffffffffffffffffffffffffffffffffffff167f8c5be1e5ebec7d5bd14f71427d1e84f3dd0314c0f7b2291e5b200ac8c7c3b92560405160405180910390a45b505b836004600085815260200190815260200160002060006101000a81548173ffffffffffffffffffffffffffffffffffffffff021916908373ffffffffffffffffffffffffffffffffffffffff16021790555050505050565b61179883838361193b565b61184c57600073ffffffffffffffffffffffffffffffffffffffff168373ffffffffffffffffffffffffffffffffffffffff160361180d57806040517f7e2732890000000000000000000000000000000000000000000000000000000081526004016118049190611ed8565b60405180910390fd5b81816040517f177e802f00000000000000000000000000000000000000000000000000000000815260040161184392919061280f565b60405180910390fd5b505050565b606060405180602001604052806000815250905090565b606061187382610adb565b50600061187e611851565b9050600081511161189e57604051806020016040528060008152506118c9565b806118a8846119fc565b6040516020016118b992919061256d565b6040516020818303038152906040525b915050919050565b60007f01ffc9a7000000000000000000000000000000000000000000000000000000007bffffffffffffffffffffffffffffffffffffffffffffffffffffffff1916827bffffffffffffffffffffffffffffffffffffffffffffffffffffffff1916149050919050565b60008073ffffffffffffffffffffffffffffffffffffffff168373ffffffffffffffffffffffffffffffffffffffff16141580156119f357508273ffffffffffffffffffffffffffffffffffffffff168473ffffffffffffffffffffffffffffffffffffffff1614806119b457506119b3848461094e565b5b806119f257508273ffffffffffffffffffffffffffffffffffffffff166119da83610b63565b73ffffffffffffffffffffffffffffffffffffffff16145b5b90509392505050565b606060006001611a0b84611aca565b01905060008167ffffffffffffffff811115611a2a57611a29611fe9565b5b6040519080825280601f01601f191660200182016040528015611a5c5781602001600182028036833780820191505090505b509050600082602083010190505b600115611abf578080600190039150507f3031323334353637383961626364656600000000000000000000000000000000600a86061a8153600a8581611ab357611ab2612838565b5b04945060008503611a6a575b819350505050919050565b600080600090507a184f03e93ff9f4daa797ed6e38ed64bf6a1f0100000000000000008310611b28577a184f03e93ff9f4daa797ed6e38ed64bf6a1f0100000000000000008381611b1e57611b1d612838565b5b0492506040810190505b6d04ee2d6d415b85acef81000000008310611b65576d04ee2d6d415b85acef81000000008381611b5b57611b5a612838565b5b0492506020810190505b662386f26fc100008310611b9457662386f26fc100008381611b8a57611b89612838565b5b0492506010810190505b6305f5e1008310611bbd576305f5e1008381611bb357611bb2612838565b5b0492506008810190505b6127108310611be2576127108381611bd857611bd7612838565b5b0492506004810190505b60648310611c055760648381611bfb57611bfa612838565b5b0492506002810190505b600a8310611c14576001810190505b80915050919050565b6000604051905090565b600080fd5b600080fd5b60007fffffffff0000000000000000000000000000000000000000000000000000000082169050919050565b611c6681611c31565b8114611c7157600080fd5b50565b600081359050611c8381611c5d565b92915050565b600060208284031215611c9f57611c9e611c27565b5b6000611cad84828501611c74565b91505092915050565b60008115159050919050565b611ccb81611cb6565b82525050565b6000602082019050611ce66000830184611cc2565b92915050565b600081519050919050565b600082825260208201905092915050565b60005b83811015611d26578082015181840152602081019050611d0b565b60008484015250505050565b6000601f19601f8301169050919050565b6000611d4e82611cec565b611d588185611cf7565b9350611d68818560208601611d08565b611d7181611d32565b840191505092915050565b60006020820190508181036000830152611d968184611d43565b905092915050565b6000819050919050565b611db181611d9e565b8114611dbc57600080fd5b50565b600081359050611dce81611da8565b92915050565b600060208284031215611dea57611de9611c27565b5b6000611df884828501611dbf565b91505092915050565b600073ffffffffffffffffffffffffffffffffffffffff82169050919050565b6000611e2c82611e01565b9050919050565b611e3c81611e21565b82525050565b6000602082019050611e576000830184611e33565b92915050565b611e6681611e21565b8114611e7157600080fd5b50565b600081359050611e8381611e5d565b92915050565b60008060408385031215611ea057611e9f611c27565b5b6000611eae85828601611e74565b9250506020611ebf85828601611dbf565b9150509250929050565b611ed281611d9e565b82525050565b6000602082019050611eed6000830184611ec9565b92915050565b600080600060608486031215611f0c57611f0b611c27565b5b6000611f1a86828701611e74565b9350506020611f2b86828701611e74565b9250506040611f3c86828701611dbf565b9150509250925092565b600060208284031215611f5c57611f5b611c27565b5b6000611f6a84828501611e74565b91505092915050565b611f7c81611cb6565b8114611f8757600080fd5b50565b600081359050611f9981611f73565b92915050565b60008060408385031215611fb657611fb5611c27565b5b6000611fc485828601611e74565b9250506020611fd585828601611f8a565b9150509250929050565b600080fd5b600080fd5b7f4e487b7100000000000000000000000000000000000000000000000000000000600052604160045260246000fd5b61202182611d32565b810181811067ffffffffffffffff821117156120405761203f611fe9565b5b80604052505050565b6000612053611c1d565b905061205f8282612018565b919050565b600067ffffffffffffffff82111561207f5761207e611fe9565b5b61208882611d32565b9050602081019050919050565b82818337600083830152505050565b60006120b76120b284612064565b612049565b9050828152602081018484840111156120d3576120d2611fe4565b5b6120de848285612095565b509392505050565b600082601f8301126120fb576120fa611fdf565b5b813561210b8482602086016120a4565b91505092915050565b6000806000806080858703121561212e5761212d611c27565b5b600061213c87828801611e74565b945050602061214d87828801611e74565b935050604061215e87828801611dbf565b925050606085013567ffffffffffffffff81111561217f5761217e611c2c565b5b61218b878288016120e6565b91505092959194509250565b600067ffffffffffffffff8211156121b2576121b1611fe9565b5b6121bb82611d32565b9050602081019050919050565b60006121db6121d684612197565b612049565b9050828152602081018484840111156121f7576121f6611fe4565b5b612202848285612095565b509392505050565b600082601f83011261221f5761221e611fdf565b5b813561222f8482602086016121c8565b91505092915050565b6000806040838503121561224f5761224e611c27565b5b600061225d85828601611e74565b925050602083013567ffffffffffffffff81111561227e5761227d611c2c565b5b61228a8582860161220a565b9150509250929050565b600080604083850312156122ab576122aa611c27565b5b60006122b985828601611e74565b92505060206122ca85828601611e74565b9150509250929050565b7f4e487b7100000000000000000000000000000000000000000000000000000000600052602260045260246000fd5b6000600282049050600182168061231b57607f821691505b60208210810361232e5761232d6122d4565b5b50919050565b60006060820190506123496000830186611e33565b6123566020830185611ec9565b6123636040830184611e33565b949350505050565b7f496e73756666696369656e742066656500000000000000000000000000000000600082015250565b60006123a1601083611cf7565b91506123ac8261236b565b602082019050919050565b600060208201905081810360008301526123d081612394565b9050919050565b7f4e487b7100000000000000000000000000000000000000000000000000000000600052601160045260246000fd5b600061241182611d9e565b91507fffffffffffffffffffffffffffffffffffffffffffffffffffffffffffffffff8203612443576124426123d7565b5b600182019050919050565b600081519050919050565b600082825260208201905092915050565b60006124758261244e565b61247f8185612459565b935061248f818560208601611d08565b61249881611d32565b840191505092915050565b60006080820190506124b86000830187611e33565b6124c56020830186611e33565b6124d26040830185611ec9565b81810360608301526124e4818461246a565b905095945050505050565b6000815190506124fe81611c5d565b92915050565b60006020828403121561251a57612519611c27565b5b6000612528848285016124ef565b91505092915050565b600081905092915050565b600061254782611cec565b6125518185612531565b9350612561818560208601611d08565b80840191505092915050565b6000612579828561253c565b9150612585828461253c565b91508190509392505050565b60008190508160005260206000209050919050565b60006020601f8301049050919050565b600082821b905092915050565b6000600883026125f37fffffffffffffffffffffffffffffffffffffffffffffffffffffffffffffffff826125b6565b6125fd86836125b6565b95508019841693508086168417925050509392505050565b6000819050919050565b600061263a61263561263084611d9e565b612615565b611d9e565b9050919050565b6000819050919050565b6126548361261f565b61266861266082612641565b8484546125c3565b825550505050565b600090565b61267d612670565b61268881848461264b565b505050565b5b818110156126ac576126a1600082612675565b60018101905061268e565b5050565b601f8211156126f1576126c281612591565b6126cb846125a6565b810160208510156126da578190505b6126ee6126e6856125a6565b83018261268d565b50505b505050565b600082821c905092915050565b6000612714600019846008026126f6565b1980831691505092915050565b600061272d8383612703565b9150826002028217905092915050565b61274682611cec565b67ffffffffffffffff81111561275f5761275e611fe9565b5b6127698254612303565b6127748282856126b0565b600060209050601f8311600181146127a75760008415612795578287015190505b61279f8582612721565b865550612807565b601f1984166127b586612591565b60005b828110156127dd578489015182556001820191506020850194506020810190506127b8565b868310156127fa57848901516127f6601f891682612703565b8355505b6001600288020188555050505b505050505050565b60006040820190506128246000830185611e33565b6128316020830184611ec9565b9392505050565b7f4e487b7100000000000000000000000000000000000000000000000000000000600052601260045260246000fdfea264697066735822122069dba228f84d4525256018589b79072d3d514ade24afead9018dfeae80376c3364736f6c63430008140033",
  "linkReferences": {},
  "deployedLinkReferences": {}
}