{
  "_format": "hh-sol-artifact-1",
  "contractName": "ExNFT",
  "sourceName": "contracts/ExNFT.sol",
  "abi": [
    {
      "inputs": [],
      "stateMutability": "nonpayable",
      "type": "constructor"
    },
    {
      "inputs": [
        {
          "internalType": "address",
          "name": "sender",
          "type": "address"
        },
        {
          "internalType": "uint256",
          "name": "tokenId",
          "type": "uint256"
        },
        {
          "internalType": "address",
          "name": "owner",
          "type": "address"
        }
      ],
      "name": "ERC721IncorrectOwner",
      "type": "error"
    },
    {
      "inputs": [
        {
          "internalType": "address",
          "name": "operator",
          "type": "address"
        },
        {
          "internalType": "uint256",
          "name": "tokenId",
          "type": "uint256"
        }
      ],
      "name": "ERC721InsufficientApproval",
      "type": "error"
    },
    {
      "inputs": [
        {
          "internalType": "address",
          "name": "approver",
          "type": "address"
        }
      ],
      "name": "ERC721InvalidApprover",
      "type": "error"
    },
    {
      "inputs": [
        {
          "internalType": "address",
          "name": "operator",
          "type": "address"
        }
      ],
      "name": "ERC721InvalidOperator",
      "type": "error"
    },
    {
      "inputs": [
        {
          "internalType": "address",
          "name": "owner",
          "type": "address"
        }
      ],
      "name": "ERC721InvalidOwner",
      "type": "error"
    },
    {
      "inputs": [
        {
          "internalType": "address",
          "name": "receiver",
          "type": "address"
        }
      ],
      "name": "ERC721InvalidReceiver",
      "type": "error"
    },
    {
      "inputs": [
        {
          "internalType": "address",
          "name": "sender",
          "type": "address"
        }
      ],
      "name": "ERC721InvalidSender",
      "type": "error"
    },
    {
      "inputs": [
        {
          "internalType": "uint256",
          "name": "tokenId",
          "type": "uint256"
        }
      ],
      "name": "ERC721NonexistentToken",
      "type": "error"
    },
    {
      "inputs": [
        {
          "internalType": "address",
          "name": "owner",
          "type": "address"
        }
      ],
      "name": "OwnableInvalidOwner",
      "type": "error"
    },
    {
      "inputs": [
        {
          "internalType": "address",
          "name": "account",
          "type": "address"
        }
      ],
      "name": "OwnableUnauthorizedAccount",
      "type": "error"
    },
    {
      "anonymous": false,
      "inputs": [
        {
          "indexed": true,
          "internalType": "address",
          "name": "owner",
          "type": "address"
        },
        {
          "indexed": true,
          "internalType": "address",
          "name": "approved",
          "type": "address"
        },
        {
          "indexed": true,
          "internalType": "uint256",
          "name": "tokenId",
          "type": "uint256"
        }
      ],
      "name": "Approval",
      "type": "event"
    },
    {
      "anonymous": false,
      "inputs": [
        {
          "indexed": true,
          "internalType": "address",
          "name": "owner",
          "type": "address"
        },
        {
          "indexed": true,
          "internalType": "address",
          "name": "operator",
          "type": "address"
        },
        {
          "indexed": false,
          "internalType": "bool",
          "name": "approved",
          "type": "bool"
        }
      ],
      "name": "ApprovalForAll",
      "type": "event"
    },
    {
      "anonymous": false,
      "inputs": [
        {
          "indexed": false,
          "internalType": "uint256",
          "name": "_fromTokenId",
          "type": "uint256"
        },
        {
          "indexed": false,
          "internalType": "uint256",
          "name": "_toTokenId",
          "type": "uint256"
        }
      ],
      "name": "BatchMetadataUpdate",
      "type": "event"
    },
    {
      "anonymous": false,
      "inputs": [
        {
          "indexed": false,
          "internalType": "uint256",
          "name": "_tokenId",
          "type": "uint256"
        }
      ],
      "name": "MetadataUpdate",
      "type": "event"
    },
    {
      "anonymous": false,
      "inputs": [
        {
          "indexed": true,
          "internalType": "address",
          "name": "previousOwner",
          "type": "address"
        },
        {
          "indexed": true,
          "internalType": "address",
          "name": "newOwner",
          "type": "address"
        }
      ],
      "name": "OwnershipTransferred",
      "type": "event"
    },
    {
      "anonymous": false,
      "inputs": [
        {
          "indexed": true,
          "internalType": "address",
          "name": "from",
          "type": "address"
        },
        {
          "indexed": true,
          "internalType": "address",
          "name": "to",
          "type": "address"
        },
        {
          "indexed": true,
          "internalType": "uint256",
          "name": "tokenId",
          "type": "uint256"
        }
      ],
      "name": "Transfer",
      "type": "event"
    },
    {
      "inputs": [
        {
          "internalType": "address",
          "name": "to",
          "type": "address"
        },
        {
          "internalType": "uint256",
          "name": "tokenId",
          "type": "uint256"
        }
      ],
      "name": "approve",
      "outputs": [],
      "stateMutability": "nonpayable",
      "type": "function"
    },
    {
      "inputs": [
        {
          "internalType": "address",
          "name": "owner",
          "type": "address"
        }
      ],
      "name": "balanceOf",
      "outputs": [
        {
          "internalType": "uint256",
          "name": "",
          "type": "uint256"
        }
      ],
      "stateMutability": "view",
      "type": "function"
    },
    {
      "inputs": [
        {
          "internalType": "uint256",
          "name": "tokenId",
          "type": "uint256"
        }
      ],
      "name": "getApproved",
      "outputs": [
        {
          "internalType": "address",
          "name": "",
          "type": "address"
        }
      ],
      "stateMutability": "view",
      "type": "function"
    },
    {
      "inputs": [
        {
          "internalType": "address",
          "name": "owner",
          "type": "address"
        },
        {
          "internalType": "address",
          "name": "operator",
          "type": "address"
        }
      ],
      "name": "isApprovedForAll",
      "outputs": [
        {
          "internalType": "bool",
          "name": "",
          "type": "bool"
        }
      ],
      "stateMutability": "view",
      "type": "function"
    },
    {
      "inputs": [
        {
          "internalType": "address",
          "name": "to",
          "type": "address"
        },
        {
          "internalType": "string",
          "name": "tokenURI",
          "type": "string"
        }
      ],
      "name": "mint",
      "outputs": [
        {
          "internalType": "uint256",
          "name": "",
          "type": "uint256"
        }
      ],
      "stateMutability": "payable",
      "type": "function"
    },
    {
      "inputs": [],
      "name": "mintFee",
      "outputs": [
        {
          "internalType": "uint256",
          "name": "",
          "type": "uint256"
        }
      ],
      "stateMutability": "view",
      "type": "function"
    },
    {
      "inputs": [],
      "name": "name",
      "outputs": [
        {
          "internalType": "string",
          "name": "",
          "type": "string"
        }
      ],
      "stateMutability": "view",
      "type": "function"
    },
    {
      "inputs": [],
      "name": "owner",
      "outputs": [
        {
          "internalType": "address",
          "name": "",
          "type": "address"
        }
      ],
      "stateMutability": "view",
      "type": "function"
    },
    {
      "inputs": [
        {
          "internalType": "uint256",
          "name": "tokenId",
          "type": "uint256"
        }
      ],
      "name": "ownerOf",
      "outputs": [
        {
          "internalType": "address",
          "name": "",
          "type": "address"
        }
      ],
      "stateMutability": "view",
      "type": "function"
    },
    {
      "inputs": [],
      "name": "renounceOwnership",
      "outputs": [],
      "stateMutability": "nonpayable",
      "type": "function"
    },
    {
      "inputs": [
        {
          "internalType": "address",
          "name": "from",
          "type": "address"
        },
        {
          "internalType": "address",
          "name": "to",
          "type": "address"
        },
        {
          "internalType": "uint256",
          "name": "tokenId",
          "type": "uint256"
        }
      ],
      "name": "safeTransferFrom",
      "outputs": [],
      "stateMutability": "nonpayable",
      "type": "function"
    },
    {
      "inputs": [
        {
          "internalType": "address",
          "name": "from",
          "type": "address"
        },
        {
          "internalType": "address",
          "name": "to",
          "type": "address"
        },
        {
          "internalType": "uint256",
          "name": "tokenId",
          "type": "uint256"
        },
        {
          "internalType": "bytes",
          "name": "data",
          "type": "bytes"
        }
      ],
      "name": "safeTransferFrom",
      "outputs": [],
      "stateMutability": "nonpayable",
      "type": "function"
    },
    {
      "inputs": [
        {
          "internalType": "address",
          "name": "operator",
          "type": "address"
        },
        {
          "internalType": "bool",
          "name": "approved",
          "type": "bool"
        }
      ],
      "name": "setApprovalForAll",
      "outputs": [],
      "stateMutability": "nonpayable",
      "type": "function"
    },
    {
      "inputs": [
        {
          "internalType": "uint256",
          "name": "_fee",
          "type": "uint256"
        }
      ],
      "name": "setMintFee",
      "outputs": [],
      "stateMutability": "nonpayable",
      "type": "function"
    },
    {
      "inputs": [
        {
          "internalType": "bytes4",
          "name": "interfaceId",
          "type": "bytes4"
        }
      ],
      "name": "supportsInterface",
      "outputs": [
        {
          "internalType": "bool",
          "name": "",
          "type": "bool"
        }
      ],
      "stateMutability": "view",
      "type": "function"
    },
    {
      "inputs": [],
      "name": "symbol",
      "outputs": [
        {
          "internalType": "string",
          "name": "",
          "type": "string"
        }
      ],
      "stateMutability": "view",
      "type": "function"
    },
    {
      "inputs": [
        {
          "internalType": "uint256",
          "name": "tokenId",
          "type": "uint256"
        }
      ],
      "name": "tokenURI",
      "outputs": [
        {
          "internalType": "string",
          "name": "",
          "type": "string"
        }
      ],
      "stateMutability": "view",
      "type": "function"
    },
    {
      "inputs": [
        {
          "internalType": "address",
          "name": "from",
          "type": "address"
        },
        {
          "internalType": "address",
          "name": "to",
          "type": "address"
        },
        {
          "internalType": "uint256",
          "name": "tokenId",
          "type": "uint256"
        }
      ],
      "name": "transferFrom",
      "outputs": [],
      "stateMutability": "nonpayable",
      "type": "function"
    },
    {
      "inputs": [
        {
          "internalType": "address",
          "name": "newOwner",
          "type": "address"
        }
      ],
      "name": "transferOwnership",
      "outputs": [],
      "stateMutability": "nonpayable",
      "type": "function"
    }
  ],
  "bytecode": "0x60806040523480156200001157600080fd5b50336040518060400160405280600581526020017f45784e46540000000000000000000000000000000000000000000000000000008152506040518060400160405280600381526020017f45584e0000000000000000000000000000000000000000000000000000000000815250816000908162000090919062000472565b508060019081620000a2919062000472565b505050600073ffffffffffffffffffffffffffffffffffffffff168173ffffffffffffffffffffffffffffffffffffffff16036200011a5760006040517f1e4fbdf70000000000000000000000000000000000000000000000000000000081526004016200011191906200059e565b60405180910390fd5b6200012b816200013260201b60201c565b50620005bb565b6000600760009054906101000a900473ffffffffffffffffffffffffffffffffffffffff16905081600760006101000a81548173ffffffffffffffffffffffffffffffffffffffff021916908373ffffffffffffffffffffffffffffffffffffffff1602179055508173ffffffffffffffffffffffffffffffffffffffff168173ffffffffffffffffffffffffffffffffffffffff167f8be0079c531659141344cd1fd0a4f28419497f9722a3daafe3b4186f6b6457e060405160405180910390a35050565b600081519050919050565b7f4e487b7100000000000000000000000000000000000000000000000000000000600052604160045260246000fd5b7f4e487b7100000000000000000000000000000000000000000000000000000000600052602260045260246000fd5b600060028204905060018216806200027a57607f821691505b60208210810362000290576200028f62000232565b5b50919050565b60008190508160005260206000209050919050565b60006020601f8301049050919050565b600082821b905092915050565b600060088302620002fa7fffffffffffffffffffffffffffffffffffffffffffffffffffffffffffffffff82620002bb565b620003068683620002bb565b95508019841693508086168417925050509392505050565b6000819050919050565b6000819050919050565b6000620003536200034d62000347846200031e565b62000328565b6200031e565b9050919050565b6000819050919050565b6200036f8362000332565b620003876200037e826200035a565b848454620002c8565b825550505050565b600090565b6200039e6200038f565b620003ab81848462000364565b505050565b5b81811015620003d357620003c760008262000394565b600181019050620003b1565b5050565b601f8211156200042257620003ec8162000296565b620003f784620002ab565b8101602085101562000407578190505b6200041f6200041685620002ab565b830182620003b0565b50505b505050565b600082821c905092915050565b6000620004476000198460080262000427565b1980831691505092915050565b600062000462838362000434565b9150826002028217905092915050565b6200047d82620001f8565b67ffffffffffffffff81111562000499576200049862000203565b5b620004a5825462000261565b620004b2828285620003d7565b600060209050601f831160018114620004ea5760008415620004d5578287015190505b620004e1858262000454565b86555062000551565b601f198416620004fa8662000296565b60005b828110156200052457848901518255600182019150602085019450602081019050620004fd565b8683101562000544578489015162000540601f89168262000434565b8355505b6001600288020188555050505b505050505050565b600073ffffffffffffffffffffffffffffffffffffffff82169050919050565b6000620005868262000559565b9050919050565b620005988162000579565b82525050565b6000602082019050620005b560008301846200058d565b92915050565b61284f80620005cb6000396000f3fe6080604052600436106101145760003560e01c8063715018a6116100a0578063c87b56dd11610064578063c87b56dd1461039d578063d0def521146103da578063e985e9c51461040a578063eddd0d9c14610447578063f2fde38b1461047057610114565b8063715018a6146102de5780638da5cb5b146102f557806395d89b4114610320578063a22cb4651461034b578063b88d4fde1461037457610114565b806313966db5116100e757806313966db5146101e757806323b872dd1461021257806342842e0e1461023b5780636352211e1461026457806370a08231146102a157610114565b806301ffc9a71461011957806306fdde0314610156578063081812fc14610181578063095ea7b3146101be575b600080fd5b34801561012557600080fd5b50610140600480360381019061013b9190611c3b565b610499565b60405161014d9190611c83565b60405180910390f35b34801561016257600080fd5b5061016b6104ab565b6040516101789190611d2e565b60405180910390f35b34801561018d57600080fd5b506101a860048036038101906101a39190611d86565b61053d565b6040516101b59190611df4565b60405180910390f35b3480156101ca57600080fd5b506101e560048036038101906101e09190611e3b565b610559565b005b3480156101f357600080fd5b506101fc61056f565b6040516102099190611e8a565b60405180910390f35b34801561021e57600080fd5b5061023960048036038101906102349190611ea5565b610575565b005b34801561024757600080fd5b50610262600480360381019061025d9190611ea5565b610677565b005b34801561027057600080fd5b5061028b60048036038101906102869190611d86565b610697565b6040516102989190611df4565b60405180910390f35b3480156102ad57600080fd5b506102c860048036038101906102c39190611ef8565b6106a9565b6040516102d59190611e8a565b60405180910390f35b3480156102ea57600080fd5b506102f3610763565b005b34801561030157600080fd5b5061030a610777565b6040516103179190611df4565b60405180910390f35b34801561032c57600080fd5b506103356107a1565b6040516103429190611d2e565b60405180910390f35b34801561035757600080fd5b50610372600480360381019061036d9190611f51565b610833565b005b34801561038057600080fd5b5061039b600480360381019061039691906120c6565b610849565b005b3480156103a957600080fd5b506103c460048036038101906103bf9190611d86565b61086e565b6040516103d19190611d2e565b60405180910390f35b6103f460048036038101906103ef91906121ea565b610880565b6040516104019190611e8a565b60405180910390f35b34801561041657600080fd5b50610431600480360381019061042c9190612246565b610900565b60405161043e9190611c83565b60405180910390f35b34801561045357600080fd5b5061046e60048036038101906104699190611d86565b610994565b005b34801561047c57600080fd5b5061049760048036038101906104929190611ef8565b6109a6565b005b60006104a482610a2c565b9050919050565b6060600080546104ba906122b5565b80601f01602080910402602001604051908101604052809291908181526020018280546104e6906122b5565b80156105335780601f1061050857610100808354040283529160200191610533565b820191906000526020600020905b81548152906001019060200180831161051657829003601f168201915b5050505050905090565b600061054882610a8d565b5061055282610b15565b9050919050565b61056b8282610566610b52565b610b5a565b5050565b60095481565b600073ffffffffffffffffffffffffffffffffffffffff168273ffffffffffffffffffffffffffffffffffffffff16036105e75760006040517f64a0ae920000000000000000000000000000000000000000000000000000000081526004016105de9190611df4565b60405180910390fd5b60006105fb83836105f6610b52565b610b6c565b90508373ffffffffffffffffffffffffffffffffffffffff168173ffffffffffffffffffffffffffffffffffffffff1614610671578382826040517f64283d7b000000000000000000000000000000000000000000000000000000008152600401610668939291906122e6565b60405180910390fd5b50505050565b61069283838360405180602001604052806000815250610849565b505050565b60006106a282610a8d565b9050919050565b60008073ffffffffffffffffffffffffffffffffffffffff168273ffffffffffffffffffffffffffffffffffffffff160361071c5760006040517f89c62b640000000000000000000000000000000000000000000000000000000081526004016107139190611df4565b60405180910390fd5b600360008373ffffffffffffffffffffffffffffffffffffffff1673ffffffffffffffffffffffffffffffffffffffff168152602001908152602001600020549050919050565b61076b610d86565b6107756000610e0d565b565b6000600760009054906101000a900473ffffffffffffffffffffffffffffffffffffffff16905090565b6060600180546107b0906122b5565b80601f01602080910402602001604051908101604052809291908181526020018280546107dc906122b5565b80156108295780601f106107fe57610100808354040283529160200191610829565b820191906000526020600020905b81548152906001019060200180831161080c57829003601f168201915b5050505050905090565b61084561083e610b52565b8383610ed3565b5050565b610854848484610575565b61086861085f610b52565b85858585611042565b50505050565b6060610879826111f3565b9050919050565b60006009543410156108c7576040517f08c379a00000000000000000000000000000000000000000000000000000000081526004016108be90612369565b60405180910390fd5b6000600860008154809291906108dc906123b8565b9190505590506108ec8482611306565b6108f681846113ff565b8091505092915050565b6000600560008473ffffffffffffffffffffffffffffffffffffffff1673ffffffffffffffffffffffffffffffffffffffff16815260200190815260200160002060008373ffffffffffffffffffffffffffffffffffffffff1673ffffffffffffffffffffffffffffffffffffffff16815260200190815260200160002060009054906101000a900460ff16905092915050565b61099c610d86565b8060098190555050565b6109ae610d86565b600073ffffffffffffffffffffffffffffffffffffffff168173ffffffffffffffffffffffffffffffffffffffff1603610a205760006040517f1e4fbdf7000000000000000000000000000000000000000000000000000000008152600401610a179190611df4565b60405180910390fd5b610a2981610e0d565b50565b6000634906490660e01b7bffffffffffffffffffffffffffffffffffffffffffffffffffffffff1916827bffffffffffffffffffffffffffffffffffffffffffffffffffffffff19161480610a865750610a858261145b565b5b9050919050565b600080610a998361153d565b9050600073ffffffffffffffffffffffffffffffffffffffff168173ffffffffffffffffffffffffffffffffffffffff1603610b0c57826040517f7e273289000000000000000000000000000000000000000000000000000000008152600401610b039190611e8a565b60405180910390fd5b80915050919050565b60006004600083815260200190815260200160002060009054906101000a900473ffffffffffffffffffffffffffffffffffffffff169050919050565b600033905090565b610b67838383600161157a565b505050565b600080610b788461153d565b9050600073ffffffffffffffffffffffffffffffffffffffff168373ffffffffffffffffffffffffffffffffffffffff1614610bba57610bb981848661173f565b5b600073ffffffffffffffffffffffffffffffffffffffff168173ffffffffffffffffffffffffffffffffffffffff1614610c4b57610bfc60008560008061157a565b6001600360008373ffffffffffffffffffffffffffffffffffffffff1673ffffffffffffffffffffffffffffffffffffffff168152602001908152602001600020600082825403925050819055505b600073ffffffffffffffffffffffffffffffffffffffff168573ffffffffffffffffffffffffffffffffffffffff1614610cce576001600360008773ffffffffffffffffffffffffffffffffffffffff1673ffffffffffffffffffffffffffffffffffffffff168152602001908152602001600020600082825401925050819055505b846002600086815260200190815260200160002060006101000a81548173ffffffffffffffffffffffffffffffffffffffff021916908373ffffffffffffffffffffffffffffffffffffffff160217905550838573ffffffffffffffffffffffffffffffffffffffff168273ffffffffffffffffffffffffffffffffffffffff167fddf252ad1be2c89b69c2b068fc378daa952ba7f163c4a11628f55a4df523b3ef60405160405180910390a4809150509392505050565b610d8e610b52565b73ffffffffffffffffffffffffffffffffffffffff16610dac610777565b73ffffffffffffffffffffffffffffffffffffffff1614610e0b57610dcf610b52565b6040517f118cdaa7000000000000000000000000000000000000000000000000000000008152600401610e029190611df4565b60405180910390fd5b565b6000600760009054906101000a900473ffffffffffffffffffffffffffffffffffffffff16905081600760006101000a81548173ffffffffffffffffffffffffffffffffffffffff021916908373ffffffffffffffffffffffffffffffffffffffff1602179055508173ffffffffffffffffffffffffffffffffffffffff168173ffffffffffffffffffffffffffffffffffffffff167f8be0079c531659141344cd1fd0a4f28419497f9722a3daafe3b4186f6b6457e060405160405180910390a35050565b600073ffffffffffffffffffffffffffffffffffffffff168273ffffffffffffffffffffffffffffffffffffffff1603610f4457816040517f5b08ba18000000000000000000000000000000000000000000000000000000008152600401610f3b9190611df4565b60405180910390fd5b80600560008573ffffffffffffffffffffffffffffffffffffffff1673ffffffffffffffffffffffffffffffffffffffff16815260200190815260200160002060008473ffffffffffffffffffffffffffffffffffffffff1673ffffffffffffffffffffffffffffffffffffffff16815260200190815260200160002060006101000a81548160ff0219169083151502179055508173ffffffffffffffffffffffffffffffffffffffff168373ffffffffffffffffffffffffffffffffffffffff167f17307eab39ab6107e8899845ad3d59bd9653f200f220920489ca2b5937696c31836040516110359190611c83565b60405180910390a3505050565b60008373ffffffffffffffffffffffffffffffffffffffff163b11156111ec578273ffffffffffffffffffffffffffffffffffffffff1663150b7a02868685856040518563ffffffff1660e01b81526004016110a19493929190612455565b6020604051808303816000875af19250505080156110dd57506040513d601f19601f820116820180604052508101906110da91906124b6565b60015b611161573d806000811461110d576040519150601f19603f3d011682016040523d82523d6000602084013e611112565b606091505b50600081510361115957836040517f64a0ae920000000000000000000000000000000000000000000000000000000081526004016111509190611df4565b60405180910390fd5b805160208201fd5b63150b7a0260e01b7bffffffffffffffffffffffffffffffffffffffffffffffffffffffff1916817bffffffffffffffffffffffffffffffffffffffffffffffffffffffff1916146111ea57836040517f64a0ae920000000000000000000000000000000000000000000000000000000081526004016111e19190611df4565b60405180910390fd5b505b5050505050565b60606111fe82610a8d565b50600060066000848152602001908152602001600020805461121f906122b5565b80601f016020809104026020016040519081016040528092919081815260200182805461124b906122b5565b80156112985780601f1061126d57610100808354040283529160200191611298565b820191906000526020600020905b81548152906001019060200180831161127b57829003601f168201915b5050505050905060006112a9611803565b905060008151036112be578192505050611301565b6000825111156112f35780826040516020016112db92919061251f565b60405160208183030381529060405292505050611301565b6112fc8461181a565b925050505b919050565b600073ffffffffffffffffffffffffffffffffffffffff168273ffffffffffffffffffffffffffffffffffffffff16036113785760006040517f64a0ae9200000000000000000000000000000000000000000000000000000000815260040161136f9190611df4565b60405180910390fd5b600061138683836000610b6c565b9050600073ffffffffffffffffffffffffffffffffffffffff168173ffffffffffffffffffffffffffffffffffffffff16146113fa5760006040517f73c6ac6e0000000000000000000000000000000000000000000000000000000081526004016113f19190611df4565b60405180910390fd5b505050565b8060066000848152602001908152602001600020908161141f91906126ef565b507ff8e1a15aba9398e019f0b49df1a4fde98ee17ae345cb5f6b5e2c27f5033e8ce78260405161144f9190611e8a565b60405180910390a15050565b60007f80ac58cd000000000000000000000000000000000000000000000000000000007bffffffffffffffffffffffffffffffffffffffffffffffffffffffff1916827bffffffffffffffffffffffffffffffffffffffffffffffffffffffff1916148061152657507f5b5e139f000000000000000000000000000000000000000000000000000000007bffffffffffffffffffffffffffffffffffffffffffffffffffffffff1916827bffffffffffffffffffffffffffffffffffffffffffffffffffffffff1916145b80611536575061153582611883565b5b9050919050565b60006002600083815260200190815260200160002060009054906101000a900473ffffffffffffffffffffffffffffffffffffffff169050919050565b80806115b35750600073ffffffffffffffffffffffffffffffffffffffff168273ffffffffffffffffffffffffffffffffffffffff1614155b156116e75760006115c384610a8d565b9050600073ffffffffffffffffffffffffffffffffffffffff168373ffffffffffffffffffffffffffffffffffffffff161415801561162e57508273ffffffffffffffffffffffffffffffffffffffff168173ffffffffffffffffffffffffffffffffffffffff1614155b8015611641575061163f8184610900565b155b1561168357826040517fa9fbf51f00000000000000000000000000000000000000000000000000000000815260040161167a9190611df4565b60405180910390fd5b81156116e557838573ffffffffffffffffffffffffffffffffffffffff168273ffffffffffffffffffffffffffffffffffffffff167f8c5be1e5ebec7d5bd14f71427d1e84f3dd0314c0f7b2291e5b200ac8c7c3b92560405160405180910390a45b505b836004600085815260200190815260200160002060006101000a81548173ffffffffffffffffffffffffffffffffffffffff021916908373ffffffffffffffffffffffffffffffffffffffff16021790555050505050565b61174a8383836118ed565b6117fe57600073ffffffffffffffffffffffffffffffffffffffff168373ffffffffffffffffffffffffffffffffffffffff16036117bf57806040517f7e2732890000000000000000000000000000000000000000000000000000000081526004016117b69190611e8a565b60405180910390fd5b81816040517f177e802f0000000000000000000000000000000000000000000000000000000081526004016117f59291906127c1565b60405180910390fd5b505050565b606060405180602001604052806000815250905090565b606061182582610a8d565b506000611830611803565b90506000815111611850576040518060200160405280600081525061187b565b8061185a846119ae565b60405160200161186b92919061251f565b6040516020818303038152906040525b915050919050565b60007f01ffc9a7000000000000000000000000000000000000000000000000000000007bffffffffffffffffffffffffffffffffffffffffffffffffffffffff1916827bffffffffffffffffffffffffffffffffffffffffffffffffffffffff1916149050919050565b60008073ffffffffffffffffffffffffffffffffffffffff168373ffffffffffffffffffffffffffffffffffffffff16141580156119a557508273ffffffffffffffffffffffffffffffffffffffff168473ffffffffffffffffffffffffffffffffffffffff16148061196657506119658484610900565b5b806119a457508273ffffffffffffffffffffffffffffffffffffffff1661198c83610b15565b73ffffffffffffffffffffffffffffffffffffffff16145b5b90509392505050565b6060600060016119bd84611a7c565b01905060008167ffffffffffffffff8111156119dc576119db611f9b565b5b6040519080825280601f01601f191660200182016040528015611a0e5781602001600182028036833780820191505090505b509050600082602083010190505b600115611a71578080600190039150507f3031323334353637383961626364656600000000000000000000000000000000600a86061a8153600a8581611a6557611a646127ea565b5b04945060008503611a1c575b819350505050919050565b600080600090507a184f03e93ff9f4daa797ed6e38ed64bf6a1f0100000000000000008310611ada577a184f03e93ff9f4daa797ed6e38ed64bf6a1f0100000000000000008381611ad057611acf6127ea565b5b0492506040810190505b6d04ee2d6d415b85acef81000000008310611b17576d04ee2d6d415b85acef81000000008381611b0d57611b0c6127ea565b5b0492506020810190505b662386f26fc100008310611b4657662386f26fc100008381611b3c57611b3b6127ea565b5b0492506010810190505b6305f5e1008310611b6f576305f5e1008381611b6557611b646127ea565b5b0492506008810190505b6127108310611b94576127108381611b8a57611b896127ea565b5b0492506004810190505b60648310611bb75760648381611bad57611bac6127ea565b5b0492506002810190505b600a8310611bc6576001810190505b80915050919050565b6000604051905090565b600080fd5b600080fd5b60007fffffffff0000000000000000000000000000000000000000000000000000000082169050919050565b611c1881611be3565b8114611c2357600080fd5b50565b600081359050611c3581611c0f565b92915050565b600060208284031215611c5157611c50611bd9565b5b6000611c5f84828501611c26565b91505092915050565b60008115159050919050565b611c7d81611c68565b82525050565b6000602082019050611c986000830184611c74565b92915050565b600081519050919050565b600082825260208201905092915050565b60005b83811015611cd8578082015181840152602081019050611cbd565b60008484015250505050565b6000601f19601f8301169050919050565b6000611d0082611c9e565b611d0a8185611ca9565b9350611d1a818560208601611cba565b611d2381611ce4565b840191505092915050565b60006020820190508181036000830152611d488184611cf5565b905092915050565b6000819050919050565b611d6381611d50565b8114611d6e57600080fd5b50565b600081359050611d8081611d5a565b92915050565b600060208284031215611d9c57611d9b611bd9565b5b6000611daa84828501611d71565b91505092915050565b600073ffffffffffffffffffffffffffffffffffffffff82169050919050565b6000611dde82611db3565b9050919050565b611dee81611dd3565b82525050565b6000602082019050611e096000830184611de5565b92915050565b611e1881611dd3565b8114611e2357600080fd5b50565b600081359050611e3581611e0f565b92915050565b60008060408385031215611e5257611e51611bd9565b5b6000611e6085828601611e26565b9250506020611e7185828601611d71565b9150509250929050565b611e8481611d50565b82525050565b6000602082019050611e9f6000830184611e7b565b92915050565b600080600060608486031215611ebe57611ebd611bd9565b5b6000611ecc86828701611e26565b9350506020611edd86828701611e26565b9250506040611eee86828701611d71565b9150509250925092565b600060208284031215611f0e57611f0d611bd9565b5b6000611f1c84828501611e26565b91505092915050565b611f2e81611c68565b8114611f3957600080fd5b50565b600081359050611f4b81611f25565b92915050565b60008060408385031215611f6857611f67611bd9565b5b6000611f7685828601611e26565b9250506020611f8785828601611f3c565b9150509250929050565b600080fd5b600080fd5b7f4e487b7100000000000000000000000000000000000000000000000000000000600052604160045260246000fd5b611fd382611ce4565b810181811067ffffffffffffffff82111715611ff257611ff1611f9b565b5b80604052505050565b6000612005611bcf565b90506120118282611fca565b919050565b600067ffffffffffffffff82111561203157612030611f9b565b5b61203a82611ce4565b9050602081019050919050565b82818337600083830152505050565b600061206961206484612016565b611ffb565b90508281526020810184848401111561208557612084611f96565b5b612090848285612047565b509392505050565b600082601f8301126120ad576120ac611f91565b5b81356120bd848260208601612056565b91505092915050565b600080600080608085870312156120e0576120df611bd9565b5b60006120ee87828801611e26565b94505060206120ff87828801611e26565b935050604061211087828801611d71565b925050606085013567ffffffffffffffff81111561213157612130611bde565b5b61213d87828801612098565b91505092959194509250565b600067ffffffffffffffff82111561216457612163611f9b565b5b61216d82611ce4565b9050602081019050919050565b600061218d61218884612149565b611ffb565b9050828152602081018484840111156121a9576121a8611f96565b5b6121b4848285612047565b509392505050565b600082601f8301126121d1576121d0611f91565b5b81356121e184826020860161217a565b91505092915050565b6000806040838503121561220157612200611bd9565b5b600061220f85828601611e26565b925050602083013567ffffffffffffffff8111156122305761222f611bde565b5b61223c858286016121bc565b9150509250929050565b6000806040838503121561225d5761225c611bd9565b5b600061226b85828601611e26565b925050602061227c85828601611e26565b9150509250929050565b7f4e487b7100000000000000000000000000000000000000000000000000000000600052602260045260246000fd5b600060028204905060018216806122cd57607f821691505b6020821081036122e0576122df612286565b5b50919050565b60006060820190506122fb6000830186611de5565b6123086020830185611e7b565b6123156040830184611de5565b949350505050565b7f496e73756666696369656e742066656500000000000000000000000000000000600082015250565b6000612353601083611ca9565b915061235e8261231d565b602082019050919050565b6000602082019050818103600083015261238281612346565b9050919050565b7f4e487b7100000000000000000000000000000000000000000000000000000000600052601160045260246000fd5b60006123c382611d50565b91507fffffffffffffffffffffffffffffffffffffffffffffffffffffffffffffffff82036123f5576123f4612389565b5b600182019050919050565b600081519050919050565b600082825260208201905092915050565b600061242782612400565b612431818561240b565b9350612441818560208601611cba565b61244a81611ce4565b840191505092915050565b600060808201905061246a6000830187611de5565b6124776020830186611de5565b6124846040830185611e7b565b8181036060830152612496818461241c565b905095945050505050565b6000815190506124b081611c0f565b92915050565b6000602082840312156124cc576124cb611bd9565b5b60006124da848285016124a1565b91505092915050565b600081905092915050565b60006124f982611c9e565b61250381856124e3565b9350612513818560208601611cba565b80840191505092915050565b600061252b82856124ee565b915061253782846124ee565b91508190509392505050565b60008190508160005260206000209050919050565b60006020601f8301049050919050565b600082821b905092915050565b6000600883026125a57fffffffffffffffffffffffffffffffffffffffffffffffffffffffffffffffff82612568565b6125af8683612568565b95508019841693508086168417925050509392505050565b6000819050919050565b60006125ec6125e76125e284611d50565b6125c7565b611d50565b9050919050565b6000819050919050565b612606836125d1565b61261a612612826125f3565b848454612575565b825550505050565b600090565b61262f612622565b61263a8184846125fd565b505050565b5b8181101561265e57612653600082612627565b600181019050612640565b5050565b601f8211156126a35761267481612543565b61267d84612558565b8101602085101561268c578190505b6126a061269885612558565b83018261263f565b50505b505050565b600082821c905092915050565b60006126c6600019846008026126a8565b1980831691505092915050565b60006126df83836126b5565b9150826002028217905092915050565b6126f882611c9e565b67ffffffffffffffff81111561271157612710611f9b565b5b61271b82546122b5565b612726828285612662565b600060209050601f8311600181146127595760008415612747578287015190505b61275185826126d3565b8655506127b9565b601f19841661276786612543565b60005b8281101561278f5784890151825560018201915060208501945060208101905061276a565b868310156127ac57848901516127a8601f8916826126b5565b8355505b6001600288020188555050505b505050505050565b60006040820190506127d66000830185611de5565b6127e36020830184611e7b565b9392505050565b7f4e487b7100000000000000000000000000000000000000000000000000000000600052601260045260246000fdfea2646970667358221220200933efe6c1ffbc9da31e9dade3b50e09516e17429f4ccc1a9d33bd9f1e207b64736f6c63430008140033",
  "linkReferences": {},
  "deployedLinkReferences": {}
}